:100A3A000608415445310D0A0B0E41542B434D47CC
:100A4A00463D310D0A181941542B434D47533D2257
:100A5A002B3132303134323333383635220D0A0BEA
:0C0A6A003C48656C6C6F576F726C640A3E
:080B3E003099FDC2998F992244
:060AD3008B478A488949A7
:100AD9007E01EED39D5015AB47AA48A9498E827570
:0C0AE9008300120AA6FF120B3E0E80E6EE
:010AF50022DE
:050B2C00120B31E4FF93
:0D0B31005391DF8FB2E59130E5FBAFB222AA
:100A7700E4FEC2A4D2A530A5FDC2A5C2A37F24125D
:100A87000B2C8F317E01EED39531500EE4FF120B04
:0E0A97003174312EF8A6070E80ECB284D2A383
:010AA500222E
:100B1200758DE6438E30758780759852758920D21F
:0A0B22008ED2994395067594A22225
:1009BF00E4F5B475B302C2A37F03120B317F0112AA
:1009CF000B317F01120B31D2A3C2A37F11120B2C5B
:1009DF00EF54F1FED2A3C2A37F01120B31AF061267
:1009EF000B31D2A3C2A37F19120B2CEF441CFED2E2
:1009FF00A3C2A37F09120B31AF06120B31D2A3C2D0
:100A0F00A37F05120B317F18120B317F32120B317E
:100A1F007F40120B317FAF120B31D2A3C2A37F03E2
:0A0A2F00120B317F20120B31D2A30D
:010A3900229A
:070AF6007F0D120B3E7F642F
:020AFD008F4A1E
:100AFF00AF4A154AEF600BE4FEEEC3946450F10E5B
:020B0F0080F76D
:010B110022C1
:100800001209BF120B127F41120AF87F54120AF824
:10081000120AF67F0A120AF8AF08120AF8AF091294
:100820000AF8AF0A120AF8AF0B120AF8AF0C120A54
:10083000F8AF0D120AF8AF0E120AF8AF0F120AF84D
:10084000AF10120AF8AF11120AF8AF12120AF8AF7D
:1008500013120AF8AF14120AF8AF15120AF8AF16FD
:10086000120AF8AF17120AF8AF18120AF8AF1912E5
:100870000AF8AF1A120AF8AF1B120AF8AF1C120AD4
:10088000F8AF1D120AF8AF1E120AF8AF1F120AF8CD
:10089000AF20120AF8AF21120AF8AF22120AF8AFFD
:1008A00023120AF8AF24120AF8AF25120AF8AF266D
:1008B000120AF8AF27120AF8AF28120AF8AF291265
:1008C0000AF8AF2A120AF8AF2B120AF8AF2C120A54
:1008D000F8AF2D120AF8AF2E120AF8AF2F120AF84D
:1008E000AF30120AF8AF3C120AF8AF3D120AF8AF67
:1008F0003E120AF8AF3F120AF8AF40120AF8AF41B1
:10090000120AF8AF42120AF8AF43120AF8AF4412C3
:100910000AF8AF45120AF8AF46120AF87F1A120A0F
:10092000F87F0A120AF8120AF67F0A120B3E7F6459
:03093000020AFDBB
:03000000020933BF
:0C093300787FE4F6D8FD75814A02097A4D
:100AA600BB010CE58229F582E5833AF583E0225005
:100AB60006E92582F8E622BBFE06E92582F8E2224F
:0D0AC600E58229F582E5833AF583E4932269
:10093F00020800E493A3F8E493A34003F68001F2C6
:10094F0008DFF48029E493A3F85407240CC8C333B9
:10095F00C4540F4420C8834004F456800146F6DF88
:10096F00E4800B0102040810204080900A3AE47ED4
:10097F00019360BCA3FF543F30E509541FFEE4937D
:10098F00A360010ECF54C025E060A840B8E493A344
:10099F00FAE493A3F8E493A3C8C582C8CAC583CA6F
:1009AF00F0A3C8C582C8CAC583CADFE9DEE780BE27
:010A7600007F
:00000001FF
