:080946003099FDC2998F99223E
:0608D7008B138A14891541
:1008DD007E01EED39D5015AB13AA14A9158E82750A
:0C08ED0083001208AAFF1209460E80E6E4
:0108F90022DC
:0509280012092DE4FF9F
:0D092D005391DF8FB2E59130E5FBAFB222B0
:10087B00E4FEC2A4D2A530A5FDC2A5C2A37F24125B
:10088B0009288F087E01EED39508500EE4FF12095C
:0E089B002D74082EF8A6070E80ECB284D2A3AE
:0108A900222C
:1008FA00758DE6438E30758780759852758920D23A
:08090A008E4395067594A222AC
:10080000E4F5B475B302C2A37F0312092D7F011270
:10081000092D7F0112092DD2A3C2A37F111209282D
:10082000EF54F1FED2A3C2A37F0112092DAF06122D
:10083000092DD2A3C2A37F19120928EF441CFED2AE
:10084000A3C2A37F0912092DAF0612092DD2A3C29C
:10085000A37F0512092D7F1812092D7F3212092D51
:100860007F4012092D7FAF12092DD2A3C2A37F03AF
:0A08700012092D7F2012092DD2A3DA
:01087A00225B
:100912001208001208FA12087B7B007A007908ADEF
:06092200081208D780F066
:0300000002093AB8
:0C093A00787FE4F6D8FD758115020912E3
:1008AA00BB010CE58229F582E5833AF583E0225003
:1008BA0006E92582F8E622BBFE06E92582F8E2224D
:0D08CA00E58229F582E5833AF583E4932267
:00000001FF
