:0208B2008F0BAA
:1008B400AF0B150BEF600BE4FEEEC3942350F10E67
:0208C40080F7BB
:0108C600220F
:0508DA001208DFE4FF3D
:0D08DF005391DF8FB2E59130E5FBAFB222FF
:1008EC00D2A530A5FDC2A37F241208DAD2A3C2A5DB
:0108FC0022D9
:10086200AE07C2A37F201208DFAF061208DFD2A3B1
:0D087200D2A57F011208B2C2A530A5FD225B
:1008FD00EF60095380FEE4F508D28C22438001227B
:10089C00C28C5389FC438901438E08750A60750923
:0608AC00F0C28DD2A9226A
:03000B0002087F69
:10087F00C0E0C0D0C28D85098C850A8A0508E508BD
:0D088F00B41405438001C28CD0D0D0E032FB
:1008C700C2A4E4F50DF50C1208EC8F0B7F0112089A
:0308D700FD80F4AD
:0C091C00D2A4E4FDAF050D12086280F8C3
:1008000075942075808975B40175B302C2A37F19F0
:100810001208DAEF4404FED2A3C2A37F091208DF54
:10082000AF061208DFD2A3C2A37F031208DF7F0145
:100830001208DF7F011208DFD2A3C2A37F111208C2
:10084000DAEF54F0FED2A3C2A3E4FF1208DF7F5F09
:100850001208DFEE440FFF1208DFD2A312089CD269
:01086000AFE8
:010861002274
:0F090D00120800E58030E5030208C712091C221A
:03000000020928CA
:0C092800787FE4F6D8FD75810D02090D02
:00000001FF
