:1000EB0010180F0808000000000000123456788129
:1000FB006F0410080F0808000000000000123456AF
:04010B0078816F0583
:02017C008F2DC5
:10017E00AF2D152DEF600BE4FEEEC3942350F10E60
:02018E0080F7F8
:01019000224C
:040191002EF8E6FF5F
:0D0195005391DF8FB2E59130E5FBAFB22250
:0C01C100D2A630A2FDE4FF120195C2A6F8
:0101CD00220F
:02011000AD0739
:10011200D2A6E4FF12017CE4FE74111201910EBE1C
:0E01220004F7AF05120195C2A67F0302017C0F
:1001A200EF60095380FEE4F528D28C2243800122BD
:10016600C28C5389FC438901438E08752A60752920
:06017600F0C28DD2A922A7
:03000B00020130BF
:10013000C0E0C0D0C28D85298C852A8A0528E52893
:0D014000B41405438001C28CD0D0D0E03251
:10009A00D2A3E4FF12017CE4FEEEC3950850087473
:1000AA00091201910E80F2C2A3E4F52CF52B12017C
:0A00BA00C1AE077F011201A280F41D
:1000C400D2A3E4FF12017CE4FCECC39518500C7439
:1000D400192CF8E6FF1201950C80EEC2A3E4FCAFE4
:0700E400040C12011080F86A
:10014D0075942075808975B40175B302D2A77F1E91
:08015D0012017C120166D2AF11
:010165002277
:0F01B20012014DE58030E50302009A1200C422CD
:0300000002000EED
:0C000E00787FE4F6D8FD75812D020055C6
:10001A000201B2E493A3F8E493A34003F68001F249
:10002A0008DFF48029E493A3F85407240CC8C333E7
:10003A00C4540F4420C8834004F456800146F6DFB6
:10004A00E4800B01020408102040809000EBE47E5B
:10005A00019360BCA3FF543F30E509541FFEE493AB
:10006A00A360010ECF54C025E060A840B8E493A372
:10007A00FAE493A3F8E493A3C8C582C8CAC583CA9D
:10008A00F0A3C8C582C8CAC583CADFE9DEE780BE55
:01010F0000EF
:00000001FF
