:0200C0008F0BA4
:1000C200AF0B150BEF600BE4FEEEC3942350F10E61
:0200D20080F7B5
:0100D4002209
:0500E8001200EDE4FF31
:0D00ED005391DF8FB2E59130E5FBAFB222F9
:1000FA00D2A530A5FDC2A37F241200E8D2A3C2A5CF
:01010A0022D2
:10007000AE07C2A37F201200EDAF061200EDD2A39F
:0D008000D2A57F011200C0C2A530A5FD224F
:10010B00EF60095380FEE4F508D28C224380012274
:1000AA00C28C5389FC438901438E08750A6075091D
:0600BA00F0C28DD2A92264
:03000B0002008D63
:10008D00C0E0C0D0C28D85098C850A8A0508E508B7
:0D009D00B41405438001C28CD0D0D0E032F5
:1000D500C2A4E4F50DF50C1200FA8F0B7F01120195
:0300E5000B80F499
:0C012A00D2A4E4FDAF050D12007080F8B7
:10000E0075942075808975B40175B302C2A37F19EA
:10001E001200E8EF4404FED2A3C2A37F091200ED42
:10002E00AF061200EDD2A3C2A37F031200ED7F0133
:10003E001200ED7F011200EDD2A3C2A37F111200B8
:10004E00E8EF54F0FED2A3C2A3E4FF1200ED7F5FEF
:10005E001200EDEE440FFF1200EDD2A31200AAD251
:01006E00AFE2
:01006F00226E
:0F011B0012000EE58030E5030200D512012A2202
:03000000020136C4
:0C013600787FE4F6D8FD75810D02011BF6
:00000001FF
