:030013000204479D
:10044700C0E0C0F0C083C082C0D075D01012803029
:0E0457001211ECD0D0D082D083D0F0D0E032A1
:0300000002024AAF
:09024A0075A04075818F02028E3F
:10000300008844CC22AA66EE119955DD33BB77FFF5
:0C04650001200046094F000000000000CC
:10001E00D2BA53B51F43B58053B57FC2857F0A123E
:10002E0080B17F007E007D007C001280BA7F0112BD
:10003E0080A2E5DA5407D394014008E5BE30E5030B
:10004E001280C97F031280BD9009001203C3000005
:10005E0000141211E690090412873AE4F54890094B
:10006E001A741FF0A37409F0A3744FF0A37403F075
:10007E00A3F07E097F1A12800F759C27439C40D2F5
:10008E00ABD2AF90090C1203C34DCEE8C090090855
:10009E001203C34DCEEFF59009107466F090093F30
:1000AE00744DF0900941E4F0A374C0F090094074CF
:1000BE0001F09009371203C30000000090093B12B3
:1000CE0003C3000000007E097F371211E990091169
:1000DE007401F0E4FDFCFF1280E1900908E0FCA33E
:1000EE00E0FDA3E0FEA3E0FF90094312873A7543BB
:1000FE00AA9009147407F09009127405F0E4A3F0A5
:10010E00900917F0A37405F0A314F090091574016B
:10011E00F0A374A1F07E097F111280841280F97F02
:10012E00641280F08E418F42C3E54294C4E541646F
:10013E008094895005E4F54080037540017F0312D9
:10014E00803C128036EF60FA12041E90094DE0607A
:10015E000B90094C7403F012018D80EC1280B47870
:10016E0005128400E47B32FAF9F8C312879550D851
:0F017E00E5DA5407940140D0C2AF1280C080C9A7
:10018D00900943E0FCA3E0FDA3E0FEA3E0FF128095
:10019D00F6900911E0B40108900910E0FF1280FCFF
:1001AD00128036EF60FA12802A1280901202D390DC
:1001BD000911E0FF1203891280D51280B48F478E8A
:1001CD00468D458C44E5DA5407D394014002D2851F
:1001DD001280B4C3EF9547FFEE9546FEED9545FDB4
:1001ED00EC9544FC900900E0F8A3E0F9A3E0FAA334
:1001FD00E0FBD312879550D8C28590094EE0FDAF34
:10020D004AAE491280DB1280B4C3EF9547FFEE95DD
:10021D0046FEED9545FDEC9544FCE47B64FAF9F85A
:10022D00D312879550E090094CE014F0708C1211A8
:0D023D00E37F007E007D007C001280BA226D
:03001B000203F4E9
:1003F400C0E0C0F0C083C082C0D075D008539C7FD9
:100404007F051280B70548E54820E003128018D024
:0A041400D0D082D083D0F0D0E032C7
:10041E00C2ABE490094DF0128015EF601912800CFA
:10042E00EF90094DF0E5206007E0F520E4F080063E
:09043E0090094DE0F520D2AB223B
:1002D300754909754A1F90094E7418F0E4FF741F9D
:1002E3002FF582E43409F583E543F00FBF0DEF5397
:1002F3004DE090094DE0541F424D90092C742DF0B0
:10030300A374D4F0900904E090092EF0900905E05D
:1003130090092FF0900906E0900930F0900907E06A
:10032300900931F0A3E54DF0A3E541F0A3E542F0D8
:08033300E4A3F0A3F012033C67
:01033B00229F
:10033C0074FFF54EF54F7D0F741F2DF582E43409D3
:10034C00F583E0FEEE624E7C08E54E30E713E54F98
:10035C0025E0FFE54E336480F54EEF6405F54F80E4
:10036C000BE54F25E0F54FE54E33F54EDCDB0DBDCF
:0C037C0016C6900935E54EF0A3E54FF0E1
:010388002252
:10038900EF60027FFFE4FE741F2EF582E43409F565
:1003990083E0FD54F0C4540F90000393540FFCED17
:1003A900540F9354F0FD4C6FFB741F2EF582E43407
:0903B90009F583EBF00EBE18CE2D
:0103C2002218
:1002530002001EE493A3F8E493A34003F68001F2A3
:1002630008DFF48029E493A3F85407240CC8C333AC
:10027300C4540F4420C8834004F456800146F6DF7B
:10028300E4800B0102040810204080900465E47EA2
:10029300019360BCA3FF543F30E509541FFEE49370
:1002A300A360010ECF54C025E060A840B8E493A337
:1002B300FAE493A3F8E493A3C8C582C8CAC583CA62
:1002C300F0A3C8C582C8CAC583CADFE9DEE780BE1A
:01047100008A
:1003C300A8828583F0D083D0821203DA1203DA1273
:1003D30003DA1203DAE473E493A3C583C5F0C58398
:1003E300C8C582C8F0A3C583C5F0C583C8C582C884
:0103F30022E7
:00000001FF
